:0400000051EF00F0CC
:0C000800FACF12F0FBCF13F053EF00F022
:10001800D8CF01F0E8CF02F0E0CF03F0FACF04F038
:10002800FBCF05F0E9CF06F0EACF07F0E1CF08F003
:10003800E2CF09F0D9CF0AF0DACF0BF0F3CF0CF00A
:10004800F4CF0DF0F6CF0EF0F7CF0FF0F8CF10F099
:10005800F5CF11F011C0F5FF10C0F8FF0FC0F7FF82
:100068000EC0F6FF0DC0F4FF0CC0F3FF0BC0DAFFA3
:100078000AC0D9FF09C0E2FF08C0E1FF07C0EAFFD4
:1000880006C0E9FF05C0FBFF04C0FAFF03C0E0FF9C
:1000980002C0E8FF01C0D8FF1000D2EF00F0E9CF9E
:1000A80014F0EACF15F0E1CF16F0E2CF17F0D9CF70
:1000B80018F0DACF19F0F3CF1AF0F4CF1BF0F6CF1F
:1000C8001CF0F7CF1DF0F8CF1EF0F5CF1FF01FC0C2
:1000D800F5FF1EC0F8FF1DC0F7FF1CC0F6FF1BC0D0
:1000E800F4FF1AC0F3FF19C0DAFF18C0D9FF17C010
:1000F800E2FF16C0E1FF15C0EAFF14C0E9FF13C014
:10010800FBFF12C0FAFF1100E8CF25F0000EAC6E1D
:10011800000EAB6E25B0AC8825A202D0AC8CAB8C9F
:1001280025B4AC8E25A602D0AB8801D0AB8A25B801
:10013800AC8425BAAB8625AC02D09D8A01D09D9AA5
:1001480025AE02D09D8801D09D9820C0AFFF21C068
:1001580022F022C023F0246A23507D6EAC8AAB8E35
:1001680012004F0EAB16AC9ACF0E9D16000E216EE4
:100178008A0E206EFF0E88EC00F01200CBEC00F027
:10018800B5EC00F0D9EC00F0D6EC00F0FDD7D38E3A
:10019800D398D39AD39CFC0ED3161200266A00017A
:0C01A800C2EF00F0C2909D9C12001200FB
:020000040020DA
:08000000FFFFFFFFFFFFFFFF00
:020000040030CA
:0E0000001D1B7F7CFF8991FF0FC00FE00F409A
:00000001FF
