:040000005EEF00F0BF
:0C000800FACF2BF0FBCF2CF07CEF04F0C3
:10001800D8CF02F0E8CF03F0E0CF04F0FACF05F034
:10002800FBCF06F0E9CF07F0EACF08F0E1CF09F0FF
:10003800E2CF0AF0D9CF0BF0DACF0CF0F3CF0DF006
:10004800F4CF0EF0F6CF0FF0F7CF10F0F8CF11F095
:10005800F5CF12F0F2A40BD0F294016E010E00015C
:100068000001A46F0150FB0ED76E1E0ED66E12C093
:10007800F5FF11C0F8FF10C0F7FF0FC0F6FF0EC064
:10008800F4FF0DC0F3FF0CC0DAFF0BC0D9FF0AC0A4
:10009800E2FF09C0E1FF08C0EAFF07C0E9FF06C0A8
:1000A800FBFF05C0FAFF04C0E0FF03C0E8FF02C081
:1000B800D8FF100037EF06F00001AF6F000E000107
:1000C8000001B36F0001AF5187EC06F0D00E0001BC
:1000D800AF6FCA0EE82EFED7AF2FFCD76BEC05F03A
:1000E80090EC06F0476E4FEC06F066EC06F0000167
:1000F800AF6F000E00010001A46F0001AF51F5ECD5
:1001080005F016EC06F0D0EC05F00001AF6F000E1C
:1001180000010001A26F0001AF510001AF6F000E96
:1001280000010001A06F0001AF517AEC06F0000158
:100138000001B06F0001AF6F000E00010001B16F48
:100148000001AF51D00E0001AF6FCA0EE82EFED7E6
:10015800AF2FFCD7A8EC05F08EEC06F000010001EB
:10016800B26F0001AF6F020E00010001A56F000120
:10017800AF51000E70EC03F000010001A405D8A4F3
:10018800FBD709EC02F00001AF6F000E000100017F
:10019800A46F0001AF51A1C0A5F000010001A0515A
:1001A80070EC03F0FFEC03F000010001B46F7AEC8F
:1001B80006F00009D8A40ED000010001B3670AD0E8
:1001C800B4C0A2F00001AF6F010E00010001A36FDF
:1001D8000001AF5100010001B305D8A418D0190ED1
:1001E80000010001B45DD8B012D0B4C0A2F0000183
:1001F800AF6F010E00010001A36F0001AF510001B4
:10020800AF6F000E00010001B36F0001AF517AEC2F
:1002180006F0200AD8A419D000010001A351D8B4CF
:1002280004D000010001A26710D00001AF6F320EA8
:1002380000010001A26F0001AF510001AF6F000E75
:1002480000010001A36F0001AF517AEC06F0200A0B
:10025800D8A492D700010001B3678ED7000100012E
:10026800A305D8A489D7190E00010001A26584D777
:100278000001AF6F010E00010001B36F0001AF5123
:10028800B4C0A2F00001AF6F010E00010001A36F1E
:100298000001AF5171D716C01BF015C01AF01766D0
:1002A8004AD013C0D9FF14C0DAFFDF50186ED890B7
:1002B8001836D8901836D89018341AC0D9FF1BC0F1
:1002C800DAFFDF6E20EE01F01A50D9261B50DA2231
:1002D80013C0E1FF14C0E2FFE750186E050E196E57
:1002E800D8901832192EFCD71850DF6E134A142AEA
:1002F80013C0D9FF14C0DAFFDF50186E050E196E4F
:10030800D8901832192EFCD71AC0D9FF1BC0DAFFB3
:100318001850DF1220EE02F01A50D9261B50DA22AC
:10032800000EDF6E20EE03F01A50D9261B50DA2299
:10033800000EDF6E120020EE02F01A50D9261B5074
:10034800DA2213C0E1FF14C0E2FFE750186E050E71
:10035800196ED8901836192EFCD71850DF6E20EE7B
:1003680003F01A50D9261B50DA2213C0E1FF14C03B
:10037800E2FFE750186ED8901832D8901832D8900B
:100388001830DF6E134A142A13C0D9FF14C0DAFFDD
:10039800DF50186E030E181620EE02F01A50D926F8
:1003A8001B50DA221850DF1213C0D9FF14C0DAFF2D
:1003B800DF50186ED8901832D8901832D89018326A
:1003C8001C0E181620EE02F01A50D9261B50DA22FD
:1003D8001850DF12134A142A13C0D9FF14C0DAFFC9
:1003E80010EE01F01A50E1261B50E222DFCFE7FFA2
:1003F800134A142A13C0D9FF14C0DAFF1AC0E1FF48
:100408001BC0E2FFDFCFE7FF1200000E0001000172
:10041800AA6F000E0001A96FA2C0ABF00001000195
:10042800A35100010001A119D8B408D00001A56F9B
:10043800000E00010001AB6F0001A5510001000191
:10044800A35100010001A119D8B407D00A0E000178
:100458000001A05DD8A0A3C0A1F00001A56F010E06
:1004680000010001AD6F0001A5513ED0000100015F
:10047800AD510001A56FA66B010E0001A527000E66
:10048800A6230001A51FA61FA54BA62B400E000101
:10049800A527000EA6230001600E0001A525D96E30
:1004A8000001000E0001A621DA6E00010001AD5125
:1004B8000001A76FA86B0001A71FA81FA74BA82BB7
:1004C800400E0001A727000EA8230001600E0001BE
:1004D800A725E16E0001000E0001A821E26EDFCF22
:1004E800E7FF00010001AD2B3F0E00010001AD65E3
:1004F800BDD7ABC060F00001A56F000E0001000180
:10050800AC6F0001A5511AD000010001AC51010DDA
:100518000001600EF324D96E0001000EF420DA6E9B
:10052800DF500001A56F0001A55100010001A927B6
:10053800000E0001AA2300010001AC2B3F0E0001B0
:100548000001AC65E1D70001A9C0A5F00001AAC06F
:10055800A6F0060E0001A76F0001D890A633A533B8
:100568000001A72FF9D70001A55100010001A06FD4
:100578001200246E000E496E245060AE13D077909E
:1005880071AE07D022C0D9FF23C0DAFF000EDB8688
:10059800719E60A002D0498001D049900F0E296E4B
:1005A800600E21D00F0130AF1200779271AC07D0E6
:1005B80022C0D9FF23C0DAFF000EDB86719C0F0131
:1005C8000F013051070B496E020E495CD8B006D0B6
:1005D80022C0D9FF23C0DAFF000EDB8E0F010F0EF9
:1005E800296E0F01300E286E29C026F028C025F08C
:1005F80022C0D9FF23C0DAFF000EDF6E20EE05F01F
:100608002850D9262950DA22DF502A6E2A500F0B9B
:1006180020C0D9FF21C0DAFFDF6E2AAC06D022C085
:10062800D9FF23C0DAFF000EDB8C20EE02F0285041
:10063800D9262950DA22DF502A6E2AA609D022C0EC
:10064800D9FF23C0DAFF000EDB8A246E010E02D028
:10065800246E000E2A6E2450010E2824136E000EFC
:100668002920146E1DC016F01CC015F02AC017F002
:100678004FEC01F0060E2826000E292220C0D9FFD3
:1006880021C0DAFFDF502A6E246E000E276E245038
:100698000FD028C0D9FF29C0DAFF1EC0E1FF1FC054
:1006A800E2FFDFCFE7FF284A292A1E4A1F2A272A06
:1006B8002A50275CD8A0EDD777AE07D022C0D9FF43
:1006C80023C0DAFF000EDB88779E25C0D9FF26C03D
:1006D800DAFF7F0EDF161200E8CFA8F00001A66F40
:1006E800000E00010001A76F0001A65100010001E2
:1006F800D890A8310F010F01516F00010001D89067
:10070800A8310F010F014E6F00010001A8A10ED002
:100718000F010F015051CF0B20090F01506F0F012E
:100728000F014D51CF0B20090F014D6F0001000142
:10073800A8B10BD0CF0E0F010F0150170F010F01F9
:100748004D51CF0B20090F014D6F00010001A50588
:10075800D8A41CD08C98000E0F010F01506F8B94F9
:100768008C8600010001A851640AD8B404D00F0E89
:100778000F010F014D6F00010001A851640AD8A4B0
:1007880005D0000E0F010F014D6F8B8C0001000189
:10079800A5671CD08C96000E0F010F014D6F8B9C26
:1007A8008C8800010001A851640AD8B404D00F0E47
:1007B8000F010F01506F00010001A851640AD8A46D
:1007C80005D0000E0F010F01506F8B84000100014E
:1007D800A551020AD8B404D000010001A86712008C
:1007E8008C968C98000E0F010F01506F000E0F01B0
:1007F8000F014D6F1200C282C2B2FED70001C4CFF2
:10080800ADF000010001AE6B00010001AD51000127
:100818000001AE6F0001AD6B00010001AD51C310C6
:1008280000010001AD6F00010001AE510001AE6F83
:10083800970E00010001AD5D020E0001AE59D8B05F
:1008480007D0020E00010001AE6F970E0001AD6FD8
:10085800DB0E00010001AD5D080E0001AE59D8A005
:1008680007D0080E00010001AE6FDA0E0001AD6F6F
:10087800690E00010001AD2500010001A56FFD0E04
:1008880000010001AE210001A66F000E0001000169
:10089800A86F120E0001A76FD7EC04F00001A5C0E5
:1008A800ADF00001A6C0AEF00F0E00010001AD5D75
:1008B800000E0001AE59D8B007D0000E00010001AB
:1008C800AE6F000E0001AD6F560E00010001AD5D68
:1008D800000E0001AE59D8A007D0000E000100019B
:1008E800AE6F640E0001AD6F00010001AD51120042
:1008F800E9CF2DF0EACF2EF0E1CF2FF0E2CF30F0A4
:10090800D9CF31F0DACF32F0F3CF33F0F4CF34F07F
:10091800F6CF35F0F7CF36F0F8CF37F0F5CF38F01F
:10092800000E77B0010E77B2010EE8A01FD0000EBE
:100938001D6E390E1C6E000E1F6E3D0E1E6E000ED3
:10094800216E450E206E000E236E460E226EBDEC03
:1009580002F020EE39F010EE13F00E0EDECFE6FFB7
:10096800E82EFCD72CEC05F07790779238C0F5FF8D
:1009780037C0F8FF36C0F7FF35C0F6FF34C0F4FFC4
:1009880033C0F3FF32C0DAFF31C0D9FF30C0E2FF15
:100998002FC0E1FF2EC0EAFF2DC0E9FF2CC0FBFFEE
:1009A8002BC0FAFF1100000E00010001AB6F000E12
:1009B8000001AA6F00010001A851A711D8B443D0C3
:1009C8000001A96F010E00010001AC6F0001A951DF
:1009D80009D0000100010001D890A737A83700010D
:1009E8000001AC2B00010001A8AFF3D70001000102
:1009F8000001D890AA37AB3700010001A7510001C8
:100A08000001A55D00010001A85100010001A659DF
:100A1800D8A00FD000010001A75100010001A55F77
:100A280000010001A85100010001A65B00010001BE
:100A3800AA81000100010001D890A833A733000162
:100A48000001AC2FD3D7AAC0A5F0ABC0A6F0120006
:100A5800020102018E67120020EE13F0020102016A
:100A68008D510E0D000E216E020E226EF3502126BE
:100A7800F450222221C0E1FF22C0E2FF0E0EDECF99
:100A8800E6FFE82EFCD7216E000E020102018F6FEF
:100A98002150020102018D2B020102018D510A0A27
:100AA800D8A406D0216E000E020102018D6F2150DC
:100AB800020102018C51020122EE8DF0DF62120068
:100AC800216E010E020102018E6F21501200000EEC
:100AD8000F010F015D6F020E0F010F015C6FC284E1
:100AE800C296C298C28AC29C3F0EC116CF0EC116CA
:100AF800C196C190C192C194C050F80B0609C06E4E
:100B0800C086C088C08AC08EC2801F0E926EFE0E3C
:100B1800966E8D80FB0E936E8A94100E946E8B8267
:100B28008B948B968B9A8B9C8B9E070E956E8C96CE
:100B38008C988C9A8C9CF18E000E0F010F015B6FC4
:100B48000F010F01568F1200D08E200EF26EF80E94
:100B5800F16E000EF06E000E9E6E000EA16E000E7D
:100B6800A46E000EB76E000E776E000E9D6E000E1E
:100B7800A06E000EA36E000EB66E030E766E000E0B
:100B88009F6E000EA26E000EA56E000EB86E030ECC
:100B9800786EF28EF28C12000001A56F000E000133
:100BA8000001A66F0001A5513F0E00010001A665D6
:100BB80001D0120000010001A651010D0001600ED4
:100BC800F324D96E0001000EF420DA6E000EDF6EF9
:100BD80000010001A62B3F0E00010001A665EAD71F
:100BE80012000001A56F010E010101018F6F0001C4
:100BF800A5510001A56F000E010101018E6F0001D2
:100C0800A5510001A56F000E010101018C6F0001C3
:100C1800A5510001A56F000E010101018D6F0001B2
:100C2800A55112000001A56F010E020102018F6F8C
:100C38000001A5510001A56F000E020102018E6F8F
:100C48000001A5510001A56F000E020102018C6F81
:100C58000001A5510001A56F000E020102018D6F70
:100C68000001A551120002EE00F0900EEE6AE806AF
:100C7800FDE101EE00F0900EEE6AE806FDE100EEFF
:100C880060F0450EEE6AE806FDE1496A486A476A7F
:100C9800000160EF00F0D59CD59AD596D550F80B99
:100CA8000609D56EFB0ED76E1E0ED66ED58ECA9669
:100CB800CA98CA9ACA9CCA50FC0B0209CA6E320E5C
:100CC800CB6E1200000E0F010F01506F000E0F01C6
:100CD8000F014D6F000E0F010F014A6F000E0F013B
:100CE8000F01476F010E996ECA84120081CFA5F0DB
:100CF80000010001A551300B00010001A56F0001A2
:100D08000001A5511200D38ED398D39AD39CFC0E20
:0C0D1800D3161200010E1200000E120093
:020000040020DA
:08000000FFFFFFFFFFFFFFFF00
:020000040030CA
:0E00000014137E7CFF8991FF0FC00FE00F40AC
:00000001FF
