:0400000091EF00F08C
:0C000800FACF2BF0FBCF2CF0F8EF06F045
:10001800D8CF02F0E8CF03F0E0CF04F0FACF05F034
:10002800FBCF06F0E9CF07F0EACF08F0E1CF09F0FF
:10003800E2CF0AF0D9CF0BF0DACF0CF0F3CF0DF006
:10004800F4CF0EF0F6CF0FF0F7CF10F0F8CF11F095
:10005800F5CF12F0F2A43ED0F294016E010E486E74
:100068000150016E010E3F6E015000010001BE05F6
:10007800D8A403D000010001C72B00010001BE5124
:10008800020AD8A408D000010001C205D8A403D0F0
:1000980000010001C72B00010001BE51020AD8A4CB
:1000A80009D000010001C251020AD8A403D00001FE
:1000B8000001C82B3950D8B403D03C6601D03E2A81
:1000C8003950D8B403D03C50D8A43D2AFB0ED76E83
:1000D8001E0ED66E12C0F5FF11C0F8FF10C0F7FF54
:1000E8000FC0F6FF0EC0F4FF0DC0F3FF0CC0DAFF1F
:1000F8000BC0D9FF0AC0E2FF09C0E1FF08C0EAFF50
:1001080007C0E9FF06C0FBFF05C0FAFF04C0E0FF17
:1001180003C0E8FF02C0D8FF100010EF09F03BEC65
:1001280009F0D00E00019B6FCA0EE82EFED79B2F58
:10013800FCD7F0EC08F042EC09F000010001C96FAF
:1001480095EC06F05BEC07F0D0EC08F067EC08F0F3
:100158008EEC08F0AFEC08F0D00E00019B6FCA0ED1
:10016800E82EFED79B2FFCD73FEC08F045EC09F0B2
:1001780000010001A16F020102018F6784D127EC01
:1001880006F020EEA2F00E0EEECFDEFFE82EFCD732
:1001980000010001C95100019B6F9C6B00019B3B52
:1001A8009C3BF00E9C179B510F0B9C13F00E9B175A
:1001B800800E00019B1100019D6F030E00019C1130
:1001C80000019E6F00019F6B00019EBF9F07000109
:1001D8009F510001A06F00010001A5510001A01965
:1001E80011E100010001A45100019F190BE1000178
:1001F8000001A35100019E1905E100010001A2516F
:1002080000019D19D8B43FD100010001C951000176
:100218009B6F9C6B00019B3B9C3BF00E9C179B517A
:100228000F0B9C13F00E9B17860E00019B1100010B
:100238009D6F030E00019C1100019E6F00019F6BD2
:1002480000019EBF9F0700019F510001A06F0001A0
:100258000001A5510001A01911E100010001A451FC
:1002680000019F190BE100010001A35100019E1933
:1002780005E100010001A25100019D19D8A464D034
:1002880000010001AE51020AD8A4FDD0000100010E
:10029800AF51400AD8A4F7D000019B6F010E0001AE
:1002A8000001B46F00019B5100019B6F000E00011B
:1002B8000001B56F00019B5100019B6F020E000108
:1002C8000001BC6F00019B51860E00019B6F030E5D
:1002D8009C6F00010001C95100019D6F9E6B0001D8
:1002E8009D3B9E3BF00E9E179D510F0B9E13F00EEB
:1002F8009D1700019B5100019D1300019C510001B5
:100308009E1300019DC0B0F000019EC0B1F0000135
:10031800000E0001B1BFFF0E0001B26F0001B36F04
:1003280000019B6F000E00010001BD6F00019B5191
:1003380020EEB0F010EE6EF00E0EDECFE6FFE82EE7
:10034800FCD7B6EC07F09FD000010001C9510001AD
:100358009B6F9C6B00019B3B9C3BF00E9C179B5139
:100368000F0B9C13F00E9B178F0E00019B110001C1
:100378009D6F030E00019C1100019E6F00019F6B91
:1003880000019EBF9F0700019F510001A06F00015F
:100398000001A5510001A01911E100010001A451BB
:1003A80000019F190BE100010001A35100019E19F2
:1003B80005E100010001A25100019D19D8A463D0F4
:1003C80000010001AE51020AD8A45DD0000100016D
:1003D800AF51400AD8A457D000019B6F010E00010D
:1003E8000001B46F00019B5100019B6F010E0001D9
:1003F8000001B56F00019B5100019B6F020E0001C7
:100408000001BC6F00019B518F0E00019B6F030E12
:100418009C6F00010001C95100019D6F9E6B000196
:100428009D3B9E3BF00E9E179D510F0B9E13F00EA9
:100438009D1700019B5100019D1300019C51000173
:100448009E1300019DC0B0F000019EC0B1F00001F4
:10045800000E0001B1BFFF0E0001B26F0001B36FC3
:1004680000019B6F000E00010001BD6F00019B5150
:1004780020EEB0F010EE6EF00E0EDECFE6FFE82EA6
:10048800FCD7B6EC07F0010101018F6774D60F01A4
:1004980020B771D6B9EC05F020EEB0F00E0EEECF15
:1004A800DEFFE82EFCD7B0C079F0B1C07AF0B2C058
:1004B8007BF0B3C07CF00001000E000100017E6FEC
:1004C8000001B40E000100017D6FBCC07FF0BDC00B
:1004D80080F060EC03F04FD60001000E000100012F
:1004E800786F0001700E00010001776F00010001B4
:1004F80074674DD077C0D9FF78C0DAFFDF500001AC
:10050800756F0001D89075330001D89075330001DC
:10051800D89075316EC0D9FF6FC0DAFFDF6E000169
:1005280020EE01F000017751D92600017851DA2236
:10053800DF500001756F050E0001766F0001D8903D
:1005480075370001762FFAD76EC0D9FF6FC0DAFF72
:1005580000017551DF12000100016E4B6F2B77C04F
:10056800D9FF78C0DAFFDF500001756F050E000172
:10057800766F0001D89075370001762FFAD7000101
:1005880075516EC0D9FF6FC0DAFFDF6E120000012F
:1005980020EE02F000017751D92600017851DA22C5
:1005A800DF500001756F050E0001766F0001D890CD
:1005B80075330001762FFAD7000175516EC0D9FF47
:1005C8006FC0DAFFDF6E000120EE03F00001775103
:1005D800D92600017851DA22DF500001756F000139
:1005E800D89075370001D89075370001D8907537C5
:1005F8006EC0D9FF6FC0DAFF00017551DF1200012C
:1006080000016E4B6F2B000120EE02F000017751C4
:10061800D92600017851DA22DF500001756F0001F8
:10062800D89075370001D89075370001D890753586
:10063800E00B6EC0D9FF6FC0DAFFDF6E6EC0D9FF66
:100648006FC0DAFF000EDB86000120EE02F0000129
:100658007751D92600017851DA22DF500001756FF1
:10066800030E000175176EC0D9FF6FC0DAFF0001D5
:100678007551DF12000100016E4B6F2B000120EE57
:1006880001F000017751D92600017851DA226EC0B5
:10069800E1FF6FC0E2FFDFCFE7FF000100016E4B13
:1006A8006F2B77C0D9FF78C0DAFF6EC0E1FF6FC04B
:1006B800E2FFDFCFE7FF12000F010F0E000100017C
:1006C800836F0F01200E00010001826F0F010F0ED2
:1006D80000010001856F0F01100E00010001846FF9
:1006E8000F010F0E00010001876F0F01000E0001BE
:1006F8000001866F0001816F000E00010001986FF4
:1007080000018151010E00010001986501D012001D
:10071800000100019851020D0001820EF324D96EE8
:100728000001000EF420DA6E0001DECF99F000011E
:10073800DDCF9AF0000100019AC096F00001000197
:1007480099C095F099C0D9FF9AC0DAFFDF5000012F
:10075800816F000181B793D099C0D9FF9AC0DAFFA1
:10076800FC0EDF1680C081F0030E0001811799C0CE
:10077800D9FF9AC0DAFF00018151DF1200010001A0
:1007880080AD08D0000100017F514009000100013F
:10079800976F02D07FC097F0000120EE05F00001AE
:1007A8009951D92600019A51DA22000197C0DFFF3A
:1007B8000001000180AB04D00001816F010E03D05D
:1007C8000001816F000E00010001976F0001815147
:1007D800010E000100019925000100016E6F000E55
:1007E800000100019A2100016F6F79C070F07AC092
:1007F80071F07BC072F07CC073F097C074F070EC3D
:1008080002F0060E000100019927000E00019A234C
:100818000001816F000E00010001946F00018151F9
:1008280015D07DC0D9FF7EC0DAFF99C0E1FF9AC01C
:10083800E2FFDFCFE7FF000100017D4B7E2B0001C7
:100848000001994B9A2B00010001942B0001000133
:100858007F5100010001945DD8A0E3D795C0D9FF6E
:1008680096C0DAFFDF500001816F000181B51200E8
:1008780095C0D9FF96C0DAFF000EDB861200000192
:100888000001982B010E00010001986541D7120064
:1008980016C01BF015C01AF017664AD013C0D9FF4E
:1008A80014C0DAFFDF50186ED8901836D890183672
:1008B800D89018341AC0D9FF1BC0DAFFDF6E20EEBB
:1008C80001F01A50D9261B50DA2213C0E1FF14C0D8
:1008D800E2FFE750186E050E196ED8901832192EDF
:1008E800FCD71850DF6E134A142A13C0D9FF14C05E
:1008F800DAFFDF50186E050E196ED8901832192ECF
:10090800FCD71AC0D9FF1BC0DAFF1850DF1220EE3F
:1009180002F01A50D9261B50DA22000EDF6E20EEA4
:1009280003F01A50D9261B50DA22000EDF6E12008F
:1009380020EE02F01A50D9261B50DA2213C0E1FF2C
:1009480014C0E2FFE750186E050E196ED8901836DD
:10095800192EFCD71850DF6E20EE03F01A50D92656
:100968001B50DA2213C0E1FF14C0E2FFE750186EF3
:10097800D8901832D8901832D8901830DF6E134AB1
:10098800142A13C0D9FF14C0DAFFDF50186E030E03
:10099800181620EE02F01A50D9261B50DA221850E9
:1009A800DF1213C0D9FF14C0DAFFDF50186ED890D9
:1009B8001832D8901832D89018321C0E181620EE1B
:1009C80002F01A50D9261B50DA221850DF12134AA7
:1009D800142A13C0D9FF14C0DAFF10EE01F01A5020
:1009E800E1261B50E222DFCFE7FF134A142A13C087
:1009F800D9FF14C0DAFF1AC0E1FF1BC0E2FFDFCF46
:100A0800E7FF1200246E000E496E245060AE13D02A
:100A1800779071AE07D022C0D9FF23C0DAFF000E4D
:100A2800DB86719E60A002D0498001D049900F0EEC
:100A3800296E600E21D00F0130AF1200779271AC91
:100A480007D022C0D9FF23C0DAFF000EDB86719CD5
:100A58000F010F013051070B496E020E495CD8B0E7
:100A680006D022C0D9FF23C0DAFF000EDB8E0F01AB
:100A78000F0E296E0F01300E286E29C026F028C0EF
:100A880025F022C0D9FF23C0DAFF000EDF6E20EE6A
:100A980005F02850D9262950DA22DF502A6E2A502C
:100AA8000F0B20C0D9FF21C0DAFFDF6E2AAC06D0B9
:100AB80022C0D9FF23C0DAFF000EDB8C20EE02F043
:100AC8002850D9262950DA22DF502A6E2AA609D0C2
:100AD80022C0D9FF23C0DAFF000EDB8A246E010E84
:100AE80002D0246E000E2A6E2450010E2824136EA4
:100AF800000E2920146E1DC016F01CC015F02AC067
:100B080017F04CEC04F0060E2826000E292220C00F
:100B1800D9FF21C0DAFFDF502A6E246E000E276E3F
:100B280024500FD028C0D9FF29C0DAFF1EC0E1FF2A
:100B38001FC0E2FFDFCFE7FF284A292A1E4A1F2AE3
:100B4800272A2A50275CD8A0EDD777AE07D022C035
:100B5800D9FF23C0DAFF000EDB88779E25C0D9FFB6
:100B680026C0DAFF7F0EDF161200010101018F6730
:100B780051D0F29E010101018C510E0D000E0001B1
:100B88007C6F010E7D6FF35000017C27F45000014B
:100B98007D237CC0D9FF7DC0DAFF10EE7EF00E0EFB
:100BA800DECFE6FFE82EFCD700017C6F000E0101C6
:100BB80001018E6F00017C51010101018C2B0101A3
:100BC80001018C510A0AD8A408D000017C6F000EDC
:100BD800010101018C6F00017C51010101018C515F
:100BE800010121EE8DF0DF6208D000017C6F010E5B
:100BF800010101018F6F00017C51F28E20EE8BF014
:100C080000EE7BF00E0EDDCFEDFFE82EFCD7E92AD3
:100C1800EA221200000E000100017E6F000E0001A2
:100C28007F6F000E0001806F000E0001816F20EEC3
:100C38008BF000EE7BF00E0EDDCFEDFFE82EFCD73B
:100C4800E92AEA221200020102018F6751D0F29EBE
:100C5800020102018C510E0D000E00017C6F020E84
:100C68007D6FF35000017C27F45000017D237CC088
:100C7800D9FF7DC0DAFF10EE7EF00E0EDECFE6FF64
:100C8800E82EFCD700017C6F000E020102018E6F76
:100C980000017C51020102018C2B020102018C51DE
:100CA8000A0AD8A408D000017C6F000E02010201D4
:100CB8008C6F00017C51020102018C51020122EE6D
:100CC8008DF0DF6208D000017C6F010E0201020185
:100CD8008F6F00017C51F28E20EE8BF000EE7BF0DE
:100CE8000E0EDDCFEDFFE82EFCD7E92AEA2212002E
:100CF800000E000100017E6F000E00017F6F000EE4
:100D08000001806F000E0001816F20EE8BF000EE75
:100D18007BF00E0EDDCFEDFFE82EFCD7E92AEA22A4
:100D28001200800E2BEC09F0010E0E010E01436F2C
:100D3800700E0E010E01446F000E0E010E01456F7C
:100D4800300E706E729E729C000E606E000E0F0167
:100D58000F01306F000E0E010E01E06F000E0E0144
:100D68000E01E16F000E0E010E01E46F000E0E0180
:100D78000E01E56F000E0E010E01E86F000E0E0168
:100D88000E01E96F000E0E010E01EC6F000E0E0150
:100D98000E01ED6F000E0E010E01F06F000E0E0138
:100DA8000E01F16F000E0E010E01F46F000E0E0120
:100DB8000E01F56F000E0E010E01F86F000E0E0108
:100DC8000E01F96F0E010E01F997000E0E010E01CA
:100DD800FC6F000E0E010E01FD6F0E010E01FD9756
:100DE800000E2BEC09F01200E9CF2DF0EACF2EF01F
:100DF800E1CF2FF0E2CF30F0D9CF31F0DACF32F0B7
:100E0800F3CF33F0F4CF34F0F6CF35F0F7CF36F038
:100E1800F8CF37F0F5CF38F0000E77B0010E77B283
:100E2800010EE8A027D00001000E1D6E0001600E23
:100E38001C6E0001000E1F6E0001640E1E6E000184
:100E4800000E216E00016C0E206E0001000E236E54
:100E580000016D0E226E06EC05F020EE60F010EE3B
:100E680013F00E0EDECFE6FFE82EFCD700EC08F0FC
:100E78007790779238C0F5FF37C0F8FF36C0F7FF94
:100E880035C0F6FF34C0F4FF33C0F3FF32C0DAFFD9
:100E980031C0D9FF30C0E2FF2FC0E1FF2EC0EAFF0A
:100EA8002DC0E9FF2CC0FBFF2BC0FAFF1100FE0E7E
:100EB8000E010E01F86F000E0E010E01F96FFE0E05
:100EC8000E010E01FC6F000E0E010E01FD6F0001F8
:100ED8000001C95100016E6F6F6B00016E3B6F3BE3
:100EE800F00E6F176E510F0B6F13F00E6E17800E0A
:100EF80000016E1100010001706F030E00016F11F7
:100F08000001716F000170C06EF0000171C06FF0D8
:100F18000001D8906F336E330001D8906F336E3371
:100F28000001D8906F336E3300016E510E010E012F
:100F3800E06F000100017039E846E00B0E010E0178
:100F4800E16F000E0E010E01F06F000E0E010E0192
:100F5800F16F000E0E010E01F46F000E0E010E016E
:100F6800F56F1200010101018E671200F29E20EE5A
:100F78006EF0010101018D510E0D000E00017C6F14
:100F8800010E7D6FF35000017C27F45000017D2392
:100F98007CC0E1FF7DC0E2FF0E0EDECFE6FFE82E4B
:100FA800FCD700017C6F000E010101018F6F000169
:100FB8007C51010101018D2B010101018D510A0AAA
:100FC800D8A408D000017C6F000E010101018D6FCB
:100FD80000017C51010101018C51010121EE8DF0CC
:100FE800DF6208D000017C6F010E010101018E6FE4
:100FF80000017C51F28E1200020102018E6712007C
:1010080020EE13F0020102018D510E0D000E216E2B
:10101800020E226EF3502126F450222221C0E1FF55
:1010280022C0E2FF0E0EDECFE6FFE82EFCD7216ECF
:10103800000E020102018F6F2150020102018D2B67
:10104800020102018D510A0AD8A406D0216E000EB1
:10105800020102018D6F2150020102018C5102012F
:1010680022EE8DF0DF621200216E010E02010201F4
:101078008E6F21501200D08E200EF26EF80EF16E97
:10108800000EF06E000E9E6E000EA16E000EA46E95
:10109800000EB76E000E776E000E9D6E000EA06EED
:1010A800000EA36E000EB66E030E766E000E9F6ED7
:1010B800000EA26E000EA56E000EB86E030E786EBE
:1010C800F28EF28C12000F0E0F010F01506F000EFE
:1010D8000F010F014D6F000E0F010F014A6F0F0E28
:1010E8000F010F01476F010E996E000E0F010F01DE
:1010F800516F320E0F010F01486FCA84BB503F0B6E
:101108008009BB6EBB90BB92BB94BB967F0EBC6E36
:101118008884120000016E6F010E010101018F6FBA
:1011280000016E5100016E6F000E010101018E6F0A
:1011380000016E5100016E6F000E010101018C6FFC
:1011480000016E5100016E6F000E010101018D6FEB
:1011580000016E51120000016E6F010E02010201C2
:101168008F6F00016E5100016E6F000E02010201C7
:101178008E6F00016E5100016E6F000E02010201B8
:101188008C6F00016E5100016E6F000E02010201AA
:101198008D6F00016E511200D59CD59AD596D55009
:1011A800F80B0609D56EFB0ED76E1E0ED66ED58EC1
:1011B800CA96CA98CA9ACA9CCA50FC0B0209CA6E37
:1011C800640ECB6E88968898889A889C8850FC0B09
:1011D8000209886EA9681200000E0F010F015D6FE9
:1011E800000E0F010F015C6F0F0E926EC80E936E0A
:1011F8008A848A8A8A808A828A88F00E946E8B947E
:101208008B808B828B86C00E956E000E8C6E000EC6
:10121800966E000E8D6E120002EE00F0900EEE6AD1
:10122800E806FDE101EE00F0900EEE6AE806FDE149
:1012380000EEBEF00C0EEE6AE806FDE100EE39F0B5
:10124800110EEE6AE806FDE1000193EF00F0E8CF29
:101258006EF01F0E6F16000100016E516F126E5076
:10126800E00B000100016E19D8B41200F8D7D38E34
:10127800D398D39AD39CFC0ED31612008050070B38
:061288001200010E12002D
:020000040020DA
:08000000FFFFFFFFFFFFFFFF00
:020000040030CA
:0E00000014137E7CFF8991FF0FC00FE00F40AC
:00000001FF
